{
  "contractName": "PropertyRegistration",
  "abi": [
    {
      "inputs": [],
      "stateMutability": "nonpayable",
      "type": "constructor"
    },
    {
      "inputs": [],
      "name": "_propertyId",
      "outputs": [
        {
          "internalType": "uint256",
          "name": "",
          "type": "uint256"
        }
      ],
      "stateMutability": "view",
      "type": "function",
      "constant": true
    },
    {
      "inputs": [],
      "name": "superAdmin",
      "outputs": [
        {
          "internalType": "address",
          "name": "",
          "type": "address"
        }
      ],
      "stateMutability": "view",
      "type": "function",
      "constant": true
    },
    {
      "inputs": [],
      "name": "totalAdmins",
      "outputs": [
        {
          "internalType": "uint256",
          "name": "",
          "type": "uint256"
        }
      ],
      "stateMutability": "view",
      "type": "function",
      "constant": true
    },
    {
      "inputs": [
        {
          "internalType": "uint256",
          "name": "",
          "type": "uint256"
        }
      ],
      "name": "userProperty",
      "outputs": [
        {
          "internalType": "uint256",
          "name": "area_sq",
          "type": "uint256"
        },
        {
          "internalType": "address",
          "name": "purchasedBy",
          "type": "address"
        },
        {
          "internalType": "address",
          "name": "ownerAddress",
          "type": "address"
        },
        {
          "internalType": "string",
          "name": "areaAddress",
          "type": "string"
        },
        {
          "internalType": "string",
          "name": "ownerName",
          "type": "string"
        },
        {
          "internalType": "string",
          "name": "previousOwner",
          "type": "string"
        },
        {
          "internalType": "uint256",
          "name": "mobile",
          "type": "uint256"
        },
        {
          "internalType": "uint256",
          "name": "landPrice",
          "type": "uint256"
        },
        {
          "internalType": "uint256",
          "name": "property_Id",
          "type": "uint256"
        },
        {
          "internalType": "uint256",
          "name": "pincode",
          "type": "uint256"
        }
      ],
      "stateMutability": "view",
      "type": "function",
      "constant": true
    },
    {
      "inputs": [
        {
          "internalType": "address",
          "name": "_adminAddr",
          "type": "address"
        },
        {
          "internalType": "string",
          "name": "_state",
          "type": "string"
        },
        {
          "internalType": "bool",
          "name": "_addP",
          "type": "bool"
        },
        {
          "internalType": "bool",
          "name": "_transP",
          "type": "bool"
        },
        {
          "internalType": "string",
          "name": "_name",
          "type": "string"
        },
        {
          "internalType": "string",
          "name": "_district",
          "type": "string"
        },
        {
          "internalType": "string",
          "name": "_city",
          "type": "string"
        }
      ],
      "name": "addAdmin",
      "outputs": [],
      "stateMutability": "nonpayable",
      "type": "function"
    },
    {
      "inputs": [
        {
          "internalType": "address",
          "name": "userAddress",
          "type": "address"
        },
        {
          "internalType": "string",
          "name": "_fullName",
          "type": "string"
        },
        {
          "internalType": "string",
          "name": "_email",
          "type": "string"
        },
        {
          "internalType": "uint256",
          "name": "_contact",
          "type": "uint256"
        },
        {
          "internalType": "string",
          "name": "_residentialAddr",
          "type": "string"
        }
      ],
      "name": "setUserProfile",
      "outputs": [],
      "stateMutability": "nonpayable",
      "type": "function"
    },
    {
      "inputs": [
        {
          "internalType": "string",
          "name": "_previousOwner",
          "type": "string"
        },
        {
          "internalType": "address",
          "name": "_ownerAddress",
          "type": "address"
        },
        {
          "internalType": "string",
          "name": "_ownerName",
          "type": "string"
        },
        {
          "internalType": "address",
          "name": "_purchasedBy",
          "type": "address"
        },
        {
          "internalType": "uint256",
          "name": "_pincode",
          "type": "uint256"
        },
        {
          "internalType": "uint256",
          "name": "_area",
          "type": "uint256"
        },
        {
          "internalType": "string",
          "name": "_areaAddress",
          "type": "string"
        },
        {
          "internalType": "uint256",
          "name": "_mobile",
          "type": "uint256"
        },
        {
          "internalType": "uint256",
          "name": "_landPrice",
          "type": "uint256"
        }
      ],
      "name": "addProperty",
      "outputs": [],
      "stateMutability": "nonpayable",
      "type": "function"
    },
    {
      "inputs": [
        {
          "internalType": "address",
          "name": "_address",
          "type": "address"
        }
      ],
      "name": "getUserProfile",
      "outputs": [
        {
          "internalType": "string",
          "name": "",
          "type": "string"
        },
        {
          "internalType": "string",
          "name": "",
          "type": "string"
        },
        {
          "internalType": "uint256",
          "name": "",
          "type": "uint256"
        },
        {
          "internalType": "string",
          "name": "",
          "type": "string"
        }
      ],
      "stateMutability": "view",
      "type": "function",
      "constant": true
    },
    {
      "inputs": [
        {
          "internalType": "uint256",
          "name": "Property_id",
          "type": "uint256"
        }
      ],
      "name": "getpropertybyPID",
      "outputs": [
        {
          "internalType": "string",
          "name": "",
          "type": "string"
        },
        {
          "internalType": "address",
          "name": "",
          "type": "address"
        },
        {
          "internalType": "address",
          "name": "",
          "type": "address"
        },
        {
          "internalType": "uint256",
          "name": "",
          "type": "uint256"
        },
        {
          "internalType": "uint256",
          "name": "",
          "type": "uint256"
        },
        {
          "internalType": "string",
          "name": "",
          "type": "string"
        }
      ],
      "stateMutability": "view",
      "type": "function",
      "constant": true
    },
    {
      "inputs": [
        {
          "internalType": "string",
          "name": "_previousOwner",
          "type": "string"
        },
        {
          "internalType": "uint256",
          "name": "Property_id",
          "type": "uint256"
        },
        {
          "internalType": "address",
          "name": "_newOwnerAddress",
          "type": "address"
        },
        {
          "internalType": "string",
          "name": "new_ownerName",
          "type": "string"
        },
        {
          "internalType": "uint256",
          "name": "new_mobile",
          "type": "uint256"
        },
        {
          "internalType": "uint256",
          "name": "new_landPrice",
          "type": "uint256"
        }
      ],
      "name": "transferProperty",
      "outputs": [],
      "stateMutability": "nonpayable",
      "type": "function"
    },
    {
      "inputs": [
        {
          "internalType": "address",
          "name": "_address",
          "type": "address"
        }
      ],
      "name": "bothAdminsCheck",
      "outputs": [
        {
          "internalType": "string",
          "name": "",
          "type": "string"
        }
      ],
      "stateMutability": "view",
      "type": "function",
      "constant": true
    },
    {
      "inputs": [],
      "name": "getSuperAdmin",
      "outputs": [
        {
          "internalType": "address",
          "name": "",
          "type": "address"
        }
      ],
      "stateMutability": "view",
      "type": "function",
      "constant": true
    }
  ],
  "bytecode": "0x60806040526103e9600054620000169190620000a7565b6003553480156200002657600080fd5b5033600160006101000a81548173ffffffffffffffffffffffffffffffffffffffff021916908373ffffffffffffffffffffffffffffffffffffffff160217905550620000e2565b6000819050919050565b7f4e487b7100000000000000000000000000000000000000000000000000000000600052601160045260246000fd5b6000620000b4826200006e565b9150620000c1836200006e565b9250828201905080821115620000dc57620000db62000078565b5b92915050565b61200c80620000f26000396000f3fe608060405234801561001057600080fd5b50600436106100b45760003560e01c8063987ee15611610071578063987ee15614610192578063a97685c8146101c5578063b7c29e12146101e1578063cdbc38e4146101fd578063e7b2cf641461021b578063eb68048b14610254576100b4565b80630980393f146100b957806323ba1340146100e957806329575f6a1461010557806367f19c6c146101235780636d7054eb146101585780638204c32614610174575b600080fd5b6100d360048036038101906100ce919061131c565b610272565b6040516100e091906113d9565b60405180910390f35b61010360048036038101906100fe9190611568565b610416565b005b61010d6105ce565b60405161011a9190611689565b60405180910390f35b61013d600480360381019061013891906116da565b6105f4565b60405161014f96959493929190611716565b60405180910390f35b610172600480360381019061016d9190611785565b610811565b005b61017c6109e1565b6040516101899190611689565b60405180910390f35b6101ac60048036038101906101a7919061131c565b610a0b565b6040516101bc949392919061184a565b60405180910390f35b6101df60048036038101906101da91906118a4565b610cdd565b005b6101fb60048036038101906101f69190611973565b610e7a565b005b610205611072565b6040516102129190611a91565b60405180910390f35b610235600480360381019061023091906116da565b611078565b60405161024b9a99989796959493929190611aac565b60405180910390f35b61025c6112a4565b6040516102699190611a91565b60405180910390f35b60608173ffffffffffffffffffffffffffffffffffffffff16600160009054906101000a900473ffffffffffffffffffffffffffffffffffffffff1673ffffffffffffffffffffffffffffffffffffffff1603610306576040518060400160405280600c81526020017f6973537570657241646d696e00000000000000000000000000000000000000008152509050610411565b8173ffffffffffffffffffffffffffffffffffffffff16600460008473ffffffffffffffffffffffffffffffffffffffff1673ffffffffffffffffffffffffffffffffffffffff16815260200190815260200160002060000160009054906101000a900473ffffffffffffffffffffffffffffffffffffffff1673ffffffffffffffffffffffffffffffffffffffff16036103d8576040518060400160405280600781526020017f697341646d696e000000000000000000000000000000000000000000000000008152509050610411565b6040518060400160405280601981526020017f55736572204973204e6f742041757468656e746963617465640000000000000081525090505b919050565b3373ffffffffffffffffffffffffffffffffffffffff16600160009054906101000a900473ffffffffffffffffffffffffffffffffffffffff1673ffffffffffffffffffffffffffffffffffffffff16146104a6576040517f08c379a000000000000000000000000000000000000000000000000000000000815260040161049d90611bcf565b60405180910390fd5b6000600460008973ffffffffffffffffffffffffffffffffffffffff1673ffffffffffffffffffffffffffffffffffffffff1681526020019081526020016000209050600260008154809291906104fc90611c1e565b9190505550878160000160006101000a81548173ffffffffffffffffffffffffffffffffffffffff021916908373ffffffffffffffffffffffffffffffffffffffff160217905550838160010190816105559190611e72565b50818160020190816105679190611e72565b50828160030190816105799190611e72565b508681600401908161058b9190611e72565b50848160050160006101000a81548160ff021916908315150217905550858160050160016101000a81548160ff0219169083151502179055505050505050505050565b600160009054906101000a900473ffffffffffffffffffffffffffffffffffffffff1681565b60606000806000806060600060066000898152602001908152602001600020600401805461062190611c95565b80601f016020809104026020016040519081016040528092919081815260200182805461064d90611c95565b801561069a5780601f1061066f5761010080835404028352916020019161069a565b820191906000526020600020905b81548152906001019060200180831161067d57829003601f168201915b505050505090506000600660008a815260200190815260200160002060020160009054906101000a900473ffffffffffffffffffffffffffffffffffffffff1690506000600660008b815260200190815260200160002060010160009054906101000a900473ffffffffffffffffffffffffffffffffffffffff1690506000600660008c81526020019081526020016000206000015490506000600660008d81526020019081526020016000206006015490506000600660008e8152602001908152602001600020600301805461077090611c95565b80601f016020809104026020016040519081016040528092919081815260200182805461079c90611c95565b80156107e95780601f106107be576101008083540402835291602001916107e9565b820191906000526020600020905b8154815290600101906020018083116107cc57829003601f168201915b505050505090508585858585859b509b509b509b509b509b5050505050505091939550919395565b3373ffffffffffffffffffffffffffffffffffffffff16600460003373ffffffffffffffffffffffffffffffffffffffff1673ffffffffffffffffffffffffffffffffffffffff16815260200190815260200160002060000160009054906101000a900473ffffffffffffffffffffffffffffffffffffffff1673ffffffffffffffffffffffffffffffffffffffff16146108e1576040517f08c379a00000000000000000000000000000000000000000000000000000000081526004016108d890611fb6565b60405180910390fd5b60006006600087815260200190815260200160002090508060020160009054906101000a900473ffffffffffffffffffffffffffffffffffffffff168160010160006101000a81548173ffffffffffffffffffffffffffffffffffffffff021916908373ffffffffffffffffffffffffffffffffffffffff160217905550848160020160006101000a81548173ffffffffffffffffffffffffffffffffffffffff021916908373ffffffffffffffffffffffffffffffffffffffff160217905550838160040190816109b39190611e72565b50868160050190816109c59190611e72565b5082816006018190555081816007018190555050505050505050565b6000600160009054906101000a900473ffffffffffffffffffffffffffffffffffffffff16905090565b606080600060606000600560008773ffffffffffffffffffffffffffffffffffffffff1673ffffffffffffffffffffffffffffffffffffffff1681526020019081526020016000206001018054610a6190611c95565b80601f0160208091040260200160405190810160405280929190818152602001828054610a8d90611c95565b8015610ada5780601f10610aaf57610100808354040283529160200191610ada565b820191906000526020600020905b815481529060010190602001808311610abd57829003601f168201915b505050505090506000600560008873ffffffffffffffffffffffffffffffffffffffff1673ffffffffffffffffffffffffffffffffffffffff1681526020019081526020016000206002018054610b3090611c95565b80601f0160208091040260200160405190810160405280929190818152602001828054610b5c90611c95565b8015610ba95780601f10610b7e57610100808354040283529160200191610ba9565b820191906000526020600020905b815481529060010190602001808311610b8c57829003601f168201915b505050505090506000600560008973ffffffffffffffffffffffffffffffffffffffff1673ffffffffffffffffffffffffffffffffffffffff1681526020019081526020016000206003015490506000600560008a73ffffffffffffffffffffffffffffffffffffffff1673ffffffffffffffffffffffffffffffffffffffff1681526020019081526020016000206004018054610c4690611c95565b80601f0160208091040260200160405190810160405280929190818152602001828054610c7290611c95565b8015610cbf5780601f10610c9457610100808354040283529160200191610cbf565b820191906000526020600020905b815481529060010190602001808311610ca257829003601f168201915b50505050509050838383839750975097509750505050509193509193565b3373ffffffffffffffffffffffffffffffffffffffff16600460003373ffffffffffffffffffffffffffffffffffffffff1673ffffffffffffffffffffffffffffffffffffffff16815260200190815260200160002060000160009054906101000a900473ffffffffffffffffffffffffffffffffffffffff1673ffffffffffffffffffffffffffffffffffffffff1614610dad576040517f08c379a0000000000000000000000000000000000000000000000000000000008152600401610da490611fb6565b60405180910390fd5b6000600560008773ffffffffffffffffffffffffffffffffffffffff1673ffffffffffffffffffffffffffffffffffffffff1681526020019081526020016000209050858160000160006101000a81548173ffffffffffffffffffffffffffffffffffffffff021916908373ffffffffffffffffffffffffffffffffffffffff16021790555084816001019081610e449190611e72565b5083816002019081610e569190611e72565b5082816003018190555081816004019081610e719190611e72565b50505050505050565b3373ffffffffffffffffffffffffffffffffffffffff16600460003373ffffffffffffffffffffffffffffffffffffffff1673ffffffffffffffffffffffffffffffffffffffff16815260200190815260200160002060000160009054906101000a900473ffffffffffffffffffffffffffffffffffffffff1673ffffffffffffffffffffffffffffffffffffffff1614610f4a576040517f08c379a0000000000000000000000000000000000000000000000000000000008152600401610f4190611fb6565b60405180910390fd5b6000600660006003548152602001908152602001600020905089816005019081610f749190611e72565b50888160020160006101000a81548173ffffffffffffffffffffffffffffffffffffffff021916908373ffffffffffffffffffffffffffffffffffffffff16021790555087816004019081610fc99190611e72565b50868160010160006101000a81548173ffffffffffffffffffffffffffffffffffffffff021916908373ffffffffffffffffffffffffffffffffffffffff1602179055506003548160080181905550848160000181905550828160060181905550818160070181905550838160030190816110449190611e72565b508581600901819055506003600081548092919061106190611c1e565b919050555050505050505050505050565b60035481565b60066020528060005260406000206000915090508060000154908060010160009054906101000a900473ffffffffffffffffffffffffffffffffffffffff16908060020160009054906101000a900473ffffffffffffffffffffffffffffffffffffffff16908060030180546110ed90611c95565b80601f016020809104026020016040519081016040528092919081815260200182805461111990611c95565b80156111665780601f1061113b57610100808354040283529160200191611166565b820191906000526020600020905b81548152906001019060200180831161114957829003601f168201915b50505050509080600401805461117b90611c95565b80601f01602080910402602001604051908101604052809291908181526020018280546111a790611c95565b80156111f45780601f106111c9576101008083540402835291602001916111f4565b820191906000526020600020905b8154815290600101906020018083116111d757829003601f168201915b50505050509080600501805461120990611c95565b80601f016020809104026020016040519081016040528092919081815260200182805461123590611c95565b80156112825780601f1061125757610100808354040283529160200191611282565b820191906000526020600020905b81548152906001019060200180831161126557829003601f168201915b505050505090806006015490806007015490806008015490806009015490508a565b60025481565b6000604051905090565b600080fd5b600080fd5b600073ffffffffffffffffffffffffffffffffffffffff82169050919050565b60006112e9826112be565b9050919050565b6112f9816112de565b811461130457600080fd5b50565b600081359050611316816112f0565b92915050565b600060208284031215611332576113316112b4565b5b600061134084828501611307565b91505092915050565b600081519050919050565b600082825260208201905092915050565b60005b83811015611383578082015181840152602081019050611368565b60008484015250505050565b6000601f19601f8301169050919050565b60006113ab82611349565b6113b58185611354565b93506113c5818560208601611365565b6113ce8161138f565b840191505092915050565b600060208201905081810360008301526113f381846113a0565b905092915050565b600080fd5b600080fd5b7f4e487b7100000000000000000000000000000000000000000000000000000000600052604160045260246000fd5b61143d8261138f565b810181811067ffffffffffffffff8211171561145c5761145b611405565b5b80604052505050565b600061146f6112aa565b905061147b8282611434565b919050565b600067ffffffffffffffff82111561149b5761149a611405565b5b6114a48261138f565b9050602081019050919050565b82818337600083830152505050565b60006114d36114ce84611480565b611465565b9050828152602081018484840111156114ef576114ee611400565b5b6114fa8482856114b1565b509392505050565b600082601f830112611517576115166113fb565b5b81356115278482602086016114c0565b91505092915050565b60008115159050919050565b61154581611530565b811461155057600080fd5b50565b6000813590506115628161153c565b92915050565b600080600080600080600060e0888a031215611587576115866112b4565b5b60006115958a828b01611307565b975050602088013567ffffffffffffffff8111156115b6576115b56112b9565b5b6115c28a828b01611502565b96505060406115d38a828b01611553565b95505060606115e48a828b01611553565b945050608088013567ffffffffffffffff811115611605576116046112b9565b5b6116118a828b01611502565b93505060a088013567ffffffffffffffff811115611632576116316112b9565b5b61163e8a828b01611502565b92505060c088013567ffffffffffffffff81111561165f5761165e6112b9565b5b61166b8a828b01611502565b91505092959891949750929550565b611683816112de565b82525050565b600060208201905061169e600083018461167a565b92915050565b6000819050919050565b6116b7816116a4565b81146116c257600080fd5b50565b6000813590506116d4816116ae565b92915050565b6000602082840312156116f0576116ef6112b4565b5b60006116fe848285016116c5565b91505092915050565b611710816116a4565b82525050565b600060c082019050818103600083015261173081896113a0565b905061173f602083018861167a565b61174c604083018761167a565b6117596060830186611707565b6117666080830185611707565b81810360a083015261177881846113a0565b9050979650505050505050565b60008060008060008060c087890312156117a2576117a16112b4565b5b600087013567ffffffffffffffff8111156117c0576117bf6112b9565b5b6117cc89828a01611502565b96505060206117dd89828a016116c5565b95505060406117ee89828a01611307565b945050606087013567ffffffffffffffff81111561180f5761180e6112b9565b5b61181b89828a01611502565b935050608061182c89828a016116c5565b92505060a061183d89828a016116c5565b9150509295509295509295565b6000608082019050818103600083015261186481876113a0565b9050818103602083015261187881866113a0565b90506118876040830185611707565b818103606083015261189981846113a0565b905095945050505050565b600080600080600060a086880312156118c0576118bf6112b4565b5b60006118ce88828901611307565b955050602086013567ffffffffffffffff8111156118ef576118ee6112b9565b5b6118fb88828901611502565b945050604086013567ffffffffffffffff81111561191c5761191b6112b9565b5b61192888828901611502565b9350506060611939888289016116c5565b925050608086013567ffffffffffffffff81111561195a576119596112b9565b5b61196688828901611502565b9150509295509295909350565b60008060008060008060008060006101208a8c031215611996576119956112b4565b5b60008a013567ffffffffffffffff8111156119b4576119b36112b9565b5b6119c08c828d01611502565b99505060206119d18c828d01611307565b98505060408a013567ffffffffffffffff8111156119f2576119f16112b9565b5b6119fe8c828d01611502565b9750506060611a0f8c828d01611307565b9650506080611a208c828d016116c5565b95505060a0611a318c828d016116c5565b94505060c08a013567ffffffffffffffff811115611a5257611a516112b9565b5b611a5e8c828d01611502565b93505060e0611a6f8c828d016116c5565b925050610100611a818c828d016116c5565b9150509295985092959850929598565b6000602082019050611aa66000830184611707565b92915050565b600061014082019050611ac2600083018d611707565b611acf602083018c61167a565b611adc604083018b61167a565b8181036060830152611aee818a6113a0565b90508181036080830152611b0281896113a0565b905081810360a0830152611b1681886113a0565b9050611b2560c0830187611707565b611b3260e0830186611707565b611b40610100830185611707565b611b4e610120830184611707565b9b9a5050505050505050505050565b7f4f6e6c792053757065722041646d696e2063616e20416464207468652041646d60008201527f696e000000000000000000000000000000000000000000000000000000000000602082015250565b6000611bb9602283611354565b9150611bc482611b5d565b604082019050919050565b60006020820190508181036000830152611be881611bac565b9050919050565b7f4e487b7100000000000000000000000000000000000000000000000000000000600052601160045260246000fd5b6000611c29826116a4565b91507fffffffffffffffffffffffffffffffffffffffffffffffffffffffffffffffff8203611c5b57611c5a611bef565b5b600182019050919050565b7f4e487b7100000000000000000000000000000000000000000000000000000000600052602260045260246000fd5b60006002820490506001821680611cad57607f821691505b602082108103611cc057611cbf611c66565b5b50919050565b60008190508160005260206000209050919050565b60006020601f8301049050919050565b600082821b905092915050565b600060088302611d287fffffffffffffffffffffffffffffffffffffffffffffffffffffffffffffffff82611ceb565b611d328683611ceb565b95508019841693508086168417925050509392505050565b6000819050919050565b6000611d6f611d6a611d65846116a4565b611d4a565b6116a4565b9050919050565b6000819050919050565b611d8983611d54565b611d9d611d9582611d76565b848454611cf8565b825550505050565b600090565b611db2611da5565b611dbd818484611d80565b505050565b5b81811015611de157611dd6600082611daa565b600181019050611dc3565b5050565b601f821115611e2657611df781611cc6565b611e0084611cdb565b81016020851015611e0f578190505b611e23611e1b85611cdb565b830182611dc2565b50505b505050565b600082821c905092915050565b6000611e4960001984600802611e2b565b1980831691505092915050565b6000611e628383611e38565b9150826002028217905092915050565b611e7b82611349565b67ffffffffffffffff811115611e9457611e93611405565b5b611e9e8254611c95565b611ea9828285611de5565b600060209050601f831160018114611edc5760008415611eca578287015190505b611ed48582611e56565b865550611f3c565b601f198416611eea86611cc6565b60005b82811015611f1257848901518255600182019150602085019450602081019050611eed565b86831015611f2f5784890151611f2b601f891682611e38565b8355505b6001600288020188555050505b505050505050565b7f4f6e6c792061646d696e206861732074686520417574686f72697a6174696f6e60008201527f20746f2041646400000000000000000000000000000000000000000000000000602082015250565b6000611fa0602783611354565b9150611fab82611f44565b604082019050919050565b60006020820190508181036000830152611fcf81611f93565b905091905056fea2646970667358221220f071508c02e5a38aadac54ff4440fe4bc571e0f60c770664aad03d9686bd322464736f6c63430008100033",
  "immutableReferences": {},
  "source": "// SPDX-License-Identifier: GPL-3.0\r\npragma solidity >= 0.5.0 < 0.9.0;\r\n\r\ncontract PropertyRegistration{\r\n \r\n    uint private landscount;\r\n    address public superAdmin;\r\n    uint public totalAdmins;\r\n    uint public _propertyId = landscount+1001;\r\n\r\nstruct Admin{\r\n        address adminAddress;\r\n        string name;\r\n        string city;\r\n        string district;\r\n        string state;\r\n        bool transferP;\r\n        bool addP;\r\n    }\r\n    struct UserProfile{\r\n        address userAddr;\r\n        string fullName;\r\n        string email;\r\n        uint256 contact;\r\n        string residentialAddr;\r\n        uint propertyOwned;\r\n        \r\n    }\r\n    struct property{\r\n        uint area_sq;\r\n        address purchasedBy;\r\n        address ownerAddress;\r\n        string areaAddress;\r\n        string ownerName;\r\n        string previousOwner;\r\n        uint mobile;\r\n        uint landPrice;\r\n        uint property_Id;\r\n        uint pincode;\r\n    }\r\n\r\n     mapping(address => Admin) private admins;\r\n\r\n     mapping(address => UserProfile) private userProfile;\r\n\r\n     mapping(uint => property) public userProperty;\r\n\r\n\r\n\r\n constructor(){\r\n        superAdmin = msg.sender;\r\n    }\r\n\r\n//Checks SuperAdmin\r\nmodifier onlySuperAdmin(){\r\n        require(superAdmin == msg.sender, \"Only Super Admin can Add the Admin\");\r\n        _;\r\n    }\r\n//Checks Admin\r\nmodifier onlyAdmin(){\r\n        require(admins[msg.sender].adminAddress == msg.sender, \"Only admin has the Authorization to Add\");\r\n        _;\r\n    }\r\n//Checks Both\r\nmodifier SuperOrAdmin(){\r\n        require(admins[msg.sender].adminAddress == msg.sender || superAdmin == msg.sender , \"Only admin has the Authorization to Add\");\r\n        _;\r\n    }\r\n\r\n\r\nfunction addAdmin(address _adminAddr, string memory _state, bool _addP,bool _transP,string memory _name,string memory _district, string memory _city) external onlySuperAdmin{\r\n        Admin storage newAdmin = admins[_adminAddr];\r\n        totalAdmins++;\r\n\r\n        newAdmin.adminAddress = _adminAddr;\r\n        newAdmin.name = _name;\r\n        newAdmin.city = _city;\r\n        newAdmin.district = _district;\r\n        newAdmin.state = _state;\r\n        newAdmin.transferP = _transP;\r\n        newAdmin.addP = _addP;\r\n    }\r\n  \r\n    // User_1: set user profile\r\n    function setUserProfile(address userAddress,string memory _fullName, string memory _email, uint256 _contact, string memory _residentialAddr) external onlyAdmin{\r\n        \r\n        UserProfile storage newUserProfile = userProfile[userAddress];\r\n        newUserProfile.userAddr = userAddress;\r\n        newUserProfile.fullName = _fullName;\r\n        newUserProfile.email = _email;\r\n        newUserProfile.contact = _contact;\r\n        newUserProfile.residentialAddr = _residentialAddr;\r\n    }\r\n\r\n       // Add property\r\n    function addProperty(string memory _previousOwner, address _ownerAddress,string memory _ownerName,address _purchasedBy,uint _pincode,uint _area, string memory _areaAddress,uint _mobile,uint _landPrice) public onlyAdmin{\r\n        \r\n        \r\n\r\n        property storage newproperty = userProperty[_propertyId];\r\n\r\n        // UserProfile storage newUserProfile = userProfile[_propertyId];\r\n\r\n        // address[] ownArr;\r\n        newproperty.previousOwner = _previousOwner;\r\n        newproperty.ownerAddress = _ownerAddress;\r\n        newproperty.ownerName = _ownerName;\r\n        newproperty.purchasedBy = _purchasedBy;\r\n        newproperty.property_Id= _propertyId;\r\n        newproperty.area_sq = _area;\r\n        newproperty.mobile = _mobile;\r\n        newproperty.landPrice = _landPrice;\r\n        newproperty.areaAddress = _areaAddress;\r\n        newproperty.pincode = _pincode;\r\n        //   ownArr.push(newproperty.ownerAddress);\r\n        //   newUserProfile.propertyOwned = _propertyId;\r\n        _propertyId++;\r\n    }\r\n\r\n\r\n\r\n//Get user Profile\r\n    function getUserProfile(address _address) external view returns(string memory, string memory, uint256, string memory){\r\n        \r\n        string memory fullName = userProfile[_address].fullName;\r\n        string memory email = userProfile[_address].email;\r\n        uint256 contact = userProfile[_address].contact;\r\n        string memory residentialAddr = userProfile[_address].residentialAddr;\r\n\r\n        return(fullName, email, contact, residentialAddr);\r\n    }\r\n//Get Property\r\n    function getpropertybyPID(uint Property_id) external view returns(string memory,address,address,uint,uint,string memory){\r\n        string memory ownerName = userProperty[Property_id].ownerName;\r\n        // address ownerAddress = userProperty[Property_id].ownerAddress;\r\n        address ownerAddress = userProperty[Property_id].ownerAddress;\r\n        address purchasedBy = userProperty[Property_id].purchasedBy;\r\n        uint area = userProperty[Property_id].area_sq;\r\n        uint mobile = userProperty[Property_id].mobile;\r\n        string memory areaAddress = userProperty[Property_id].areaAddress;\r\n\r\n        return (ownerName,ownerAddress,purchasedBy,area,mobile,areaAddress);\r\n    }\r\n\r\n\r\n\r\n//Property Transfer\r\n    function transferProperty(string memory _previousOwner ,uint Property_id,address _newOwnerAddress,string memory new_ownerName,uint new_mobile,uint new_landPrice) external onlyAdmin{\r\n        property storage newproperty = userProperty[Property_id];\r\n        // newproperty.ownArr.push(new_User);\r\n        newproperty.purchasedBy =newproperty.ownerAddress;\r\n        newproperty.ownerAddress = _newOwnerAddress;\r\n        newproperty.ownerName = new_ownerName;\r\n        newproperty.previousOwner = _previousOwner;\r\n        newproperty.mobile =  new_mobile;\r\n        newproperty.landPrice = new_landPrice;\r\n\r\n    }\r\n\r\nfunction bothAdminsCheck(address _address) public view returns(string memory){\r\n\r\n            if(superAdmin == _address){\r\n                return (\"isSuperAdmin\");\r\n            }else if(admins[_address].adminAddress == _address){\r\n                return (\"isAdmin\");\r\n            }else{\r\n                return (\"User Is Not Authenticated\");\r\n            }\r\n}\r\nfunction getSuperAdmin() public view returns(address){  \r\n  return superAdmin;\r\n}\r\n    \r\n}\r\n\r\n\r\n\r\n",
  "sourcePath": "C:\\Users\\Apple\\Desktop\\Js project\\Property Registration Blockchain Project 1\\Property-registration\\contracts\\PropertyRegistration.sol",
  "compiler": {
    "name": "solc",
    "version": "0.8.16+commit.07a7930e.Emscripten.clang"
  },
  "schemaVersion": "3.4.8",
  "updatedAt": "2022-08-10T10:14:09.217Z",
  "networkType": "ethereum",
  "devdoc": {
    "kind": "dev",
    "methods": {},
    "version": 1
  },
  "userdoc": {
    "kind": "user",
    "methods": {},
    "version": 1
  }
}